S0130000646973706C6179377365672E73726563A5
S11300000C9434000C9451000C9451000C94510045
S11300100C9451000C9451000C9451000C94510018
S11300200C9451000C9451000C9451000C94510008
S11300300C9451000C9451000C9451000C945100F8
S11300400C9451000C9451000C9451000C945100E8
S11300500C9451000C9451000C9451000C945100D8
S11300600C9451000C94510011241FBECFEFD8E022
S1130070DEBFCDBF11E0A0E0B1E0E6EFF0E002C0EA
S113008005900D92AA30B107D9F721E0AAE0B1E0BA
S113009001C01D92AB30B207E1F70E9453000C94EB
S11300A079000C9400008FEF87B98AB18E7F8AB9EA
S11300B08BB181608BB9489905C080910A018F5F2B
S11300C080930A0180910A018A3011F410920A0186
S11300D02FEF81EE94E0215080409040E1F700C082
S11300E00000E0910A01F0E0E050FF4F808188B900
S10900F0E2CFF894FFCFFB
S10D00F67E306D79335B5F707F7B11
S9030000FC
