:100000000C9434000C946B000C943E000C943E0055
:100010000C943E000C943E000C943E000C943E0068
:100020000C943E000C943E000C943E000C943E0058
:100030000C943E000C943E000C943E000C943E0048
:100040000C943E000C943E000C943E000C943E0038
:100050000C943E000C943E000C943E000C943E0028
:100060000C943E000C943E0011241FBECFEFD8E04C
:10007000DEBFCDBF0E9440000C9494000C940000A1
:10008000CF93DF93CDB7DEB78AE290E02AE230E08B
:10009000F90120812B7FFC01208387E290E027E299
:1000A00030E0F90120812460FC0120838BE290E0A4
:1000B0002BE230E0F90120812460FC01208389E6F5
:1000C00090E022E0FC0120838DE390E021E0FC0140
:1000D00020837894FFCF1F920F9200905F000F92C1
:1000E00011242F933F938F939F93EF93FF93CF937D
:1000F000DF93CDB7DEB788E290E028E230E0F90187
:10010000308124E02327FC0120830000DF91CF9180
:10011000FF91EF919F918F913F912F910F900092BE
:0C0120005F000F901F901895F894FFCF1F
:00000001FF
