:100000000C9434000C943E000C943E000C943E0082
:100010000C943E000C943E000C943E000C943E0068
:100020000C943E000C943E000C943E000C943E0058
:100030000C943E000C943E000C943E000C943E0048
:100040000C943E000C943E000C943E000C943E0038
:100050000C943E000C943E000C943E000C943E0028
:100060000C943E000C943E0011241FBECFEFD8E04C
:10007000DEBFCDBF0E9440000C9453000C940000E2
:10008000CF93DF93CDB7DEB784E290E020E2FC01AE
:10009000208385E290E020E2FC01208385E290E06D
:0A00A000FC011082F6CFF894FFCFA8
:00000001FF
