S00D0000626C696E6B2E7372656307
S11300000C9434000C943E000C943E000C943E007E
S11300100C943E000C943E000C943E000C943E0064
S11300200C943E000C943E000C943E000C943E0054
S11300300C943E000C943E000C943E000C943E0044
S11300400C943E000C943E000C943E000C943E0034
S11300500C943E000C943E000C943E000C943E0024
S11300600C943E000C943E0011241FBECFEFD8E048
S1130070DEBFCDBF0E9440000C945C020C940000D3
S1130080CF93DF93CDB7DEB76C970FB6F894DEBF8E
S11300900FBECDBF84E290E024E230E0F90120817C
S11300A02062FC01208385E290E020E2FC012083B1
S11300B080E090E0AAE7B4E489839A83AB83BC83AD
S11300C020E030E04AE755E469817A818B819C81A4
S11300D00E94C701DC01CB018B8B9C8BAD8BBE8B4B
S11300E020E030E040E85FE36B897C898D899E895C
S11300F00E94410188232CF481E090E0988F8F8B3B
S11301003FC020E03FEF4FE757E46B897C898D893E
S11301109E890E94C20118164CF520E030E040E2AE
S113012051E469817A818B819C810E94C701DC0141
S1130130CB01BC01CD010E944601DC01CB01988FAB
S11301408F8B0FC080E991E09A8F898F898D9A8D6A
S11301500197F1F79A8F898F8F89988D0197988FDE
S11301608F8B8F89988D892B69F714C06B897C8953
S11301708D899E890E944601DC01CB01988F8F8B6B
S11301808F89988D9C8F8B8F8B8D9C8D0197F1F728
S11301909C8F8B8F85E290E0FC01108280E090E0E0
S11301A0AAE7B4E48D839E83AF83B88720E030E070
S11301B04AE755E46D817E818F8198850E94C7014D
S11301C0DC01CB0189879A87AB87BC8720E030E0CC
S11301D040E85FE369857A858B859C850E944101AF
S11301E088232CF481E090E09E878D873FC020E037
S11301F03FEF4FE757E469857A858B859C850E949C
S1130200C20118164CF520E030E040E251E46D8163
S11302107E818F8198850E94C701DC01CB01BC01DE
S1130220CD010E944601DC01CB019E878D870FC062
S113023080E991E0988B8F878F8598890197F1F7F2
S1130240988B8F878D859E8501979E878D878D8559
S11302509E85892B69F714C069857A858B859C8571
S11302600E944601DC01CB019E878D878D859E858A
S11302709A8B898B89899A890197F1F79A8B898B53
S113028012CF0E94750108F481E008950E94A10133
S113029088F09F5798F0B92F9927B751B0F0E1F043
S11302A0660F771F881F991F1AF0BA95C9F714C0F3
S11302B0B13091F00E94BB01B1E008950C94BB01F0
S11302C0672F782F8827B85F39F0B93FCCF386952C
S11302D077956795B395D9F73EF490958095709589
S11302E061957F4F8F4F9F4F0895990F0008550FC9
S11302F0AA0BE0E8FEEF16161706E807F907C0F0A8
S113030012161306E407F50798F0621B730B840BAF
S1130310950B39F40A2661F0232B242B252B21F489
S113032008950A2609F4A140A6958FEF811D811D29
S1130330089557FD9058440F551F59F05F3F71F0D1
S11303404795880F97FB991F61F09F3F79F0879538
S11303500895121613061406551FF2CF4695F1DFC1
S113036008C0161617061806991FF1CF8695710551
S1130370610508940895E894BB2766277727CB0185
S113038097F908950E94750108F48FEF08950E946B
S1130390DA010C944B020E943D0238F00E944402A0
S11303A020F0952311F00C9434020C943A02112499
S11303B00C94BC010E94990170F3959FC1F3950FB1
S11303C050E0551F629FF001729FBB27F00DB11DD5
S11303D0639FAA27F00DB11DAA1F649F6627B00D65
S11303E0A11D661F829F2227B00DA11D621F739F4E
S11303F0B00DA11D621F839FA00D611D221F749F5C
S11304003327A00D611D231F849F600D211D822FA2
S1130410762F6A2F11249F5750409AF0F1F08823C9
S11304204AF0EE0FFF1FBB1F661F771F881F9150F6
S11304305040A9F79E3F510580F00C9434020C946F
S1130440BC015F3FE4F3983ED4F3869577956795B6
S1130450B795F795E7959F5FC1F7FE2B880F911D20
S11304609695879597F9089597F99F6780E870E0C6
S113047060E008959FEF80EC089500240A94161616
S1130480170618060906089500240A94121613067E
S1130490140605060895092E0394000C11F488230C
S11304A052F0BB0F40F4BF2B11F460FF04C06F5F28
S10F04B07F4F8F4F9F4F0895F894FFCFAB
S9030000FC
